:020000040800F2
:10000000005D0020A1030008D54E0008D13C000887
:10001000D14E0008150B0008A75E00080000000084
:10002000000000000000000000000000AD02000819
:10003000FF0C00080000000009030008B751000889
:10004000BB030008BB030008BB030008BB03000898
:10005000BB030008BB030008BB030008BB03000888
:10006000BB030008BB030008BB030008BB03000878
:10007000D50B0008BB030008E50B0008BB03000814
:10008000BB030008BB030008BB030008BB03000858
:10009000190B0008BB030008BB030008BB030008E2
:1000A000BB0300089D520008BB030008BB03000807
:1000B000BB030008AD520008BD520008BB03000896
:1000C000BB030008D53C0008BB030008BB030008C5
:1000D000BB030008BB030008BB030008595E00080F
:1000E000BB030008BB030008BB030008BB030008F8
:1000F000BB030008BB030008BB030008BB030008E8
:10010000BB030008BB030008BB030008BB030008D7
:10011000BB030008BB030008BB030008BB030008C7
:10012000BB030008BB030008BB030008BB030008B7
:10013000BB030008BB030008BB030008BB030008A7
:10014000290B0008BB030008BB030008BB03000821
:10015000BB030008BB030008BB0300086D5E00087A
:10016000BB030008BB030008BB030008BB03000877
:10017000BB030008BB030008BB030008000000002D
:10018000BB030008BB030008BB030008BB03000857
:10019000BB030008BB030008BB030008BB03000847
:1001A0000000000000000000BB03000800F002F89F
:1001B00000F06CF80AA090E8000C82448344AAF195
:1001C0000107DA4501D100F061F8AFF2090EBAE893
:1001D0000F0013F0010F18BFFB1A43F0010318477B
:1001E00098DD0000B8DD00000A444FF0000C10F864
:1001F000013B13F0070408BF10F8014B1D1108BFA5
:1002000010F8015B641E05D010F8016B641E01F844
:10021000016BF9D113F0080F1EBF10F8014BAD1C94
:100220000C1B09D16D1E58BF01F801CBFAD505E0B2
:1002300014F8016B01F8016B6D1EF9D59142D6D30C
:10024000704700000023002400250026103A28BF34
:1002500078C1FBD8520728BF30C148BF0B60704738
:10026000642900F07D81002070471FB50DF027FB49
:1002700000F0D5F900F0F2FB0400002000210CF0A2
:1002800057FC401C60601FBD10B510BD00F0C1FBE5
:100290001146FFF7EAFF09F005FA00F0F1FB03B49D
:1002A000FFF7F2FF03BC06F0BBFF00002C4B196800
:1002B0000868B0E8F04F80F30988BFF36F8F4FF004
:1002C000000080F3118870470000000008480068B3
:1002D000006880F308884FF0000080F3148862B64D
:1002E00061B6BFF34F8FBFF36F8F00DF00BF00BF5A
:1002F00008ED00E0DFF80C00016841F470010160D6
:10030000704700BF88ED00E0EFF30980BFF36F8F07
:10031000134B1A681EF0100F08BF20ED108A20E959
:10032000F04F106009B44FF0500080F31188BFF314
:100330004F8FBFF36F8F0BF039FC4FF0000080F34D
:10034000118809BC19680868B0E8F04F1EF0100F5A
:1003500008BFB0EC108A80F30988BFF36F8F704735
:100360005C000020EFF30580704700000B49D1F8D6
:1003700000C04A685CF8043B1068184442F8040B5B
:100380008C4528BFA1F1DC0C8A4228BFA1F1DC0218
:10039000C1F800C04A6020F0004070479856002025
:1003A0000948804709480047FEE7FEE7FEE7FEE709
:1003B000FEE7FEE7FEE7FEE7FEE7FEE70448054945
:1003C000054A064B7047000089520008AD0100083D
:1003D00000570020005D0020005900200059002037
:1003E000704753EA020C00F069802DE9F04B4FF0A2
:1003F0000006002B1FBFB3FA83F503FA05F424FAB5
:1004000005F65E4012BF1643B2FA82F502FA05F411
:10041000C5F120051EBF22FA05FC44EA0C04203574
:1004200056EA044C4FEA144418BF641C4FF000080D
:100430004FF00009904271EB030C39D3002919BF2A
:10044000B1FA81F701FA07F6B0FA80F700FA07F679
:10045000C7F120071EBF20FA07FC46EA0C0620372A
:10046000B6FBF4FCA7EB0507103F07F01F0BCBF121
:1004700020060CFA0BFB2CFA06F644BFB346002606
:10048000202FA4BF5E464FF0000B5BEA060C08BFAE
:100490004FF0010B19EB0B09ABFB027C48EB060894
:1004A000C01B06FB02CC0BFB03CC71EB0C01C1E7BC
:1004B0000B46024641464846BDE8F08B13B54FF067
:1004C00000004FF00001AFF30080BDE81C40704712
:1004D0000FB41CB5074B06AA7B44694600900598EB
:1004E00000F0EBF90020694600F0FAF91CBC5DF859
:1004F00014FB0000050400002DE9F0410E460446FF
:10050000002020622046E168884730B3252805D0C6
:10051000D4E901219047206A401CF2E7E1682046B7
:1005200000278847050018D0A5F14100192802D8F6
:1005300020354FF400673246294620462760FFF7F2
:100540008FFE40B1012804D0F61D26F007060836BC
:10055000D8E7361DD6E72846DAE7206ABDE8F081FD
:100560002DE9F0410646002410687529314616A58C
:1005700010D0AFF30080002802DA404213A507E054
:1005800031688A0701D512A502E0490704D511A5F3
:10059000012401E0AFF3008000210A2206F12407C4
:1005A00009E0B0FBF2FCB0FBF2F302FB1C003030C0
:1005B00078541846491C0028F3D123462A46304671
:1005C000BDE8F04100F01BB9000000002D00000064
:1005D0002B0000002000000070B5064600F000F976
:1005E0000468054630460A22002100F07EF92C609E
:1005F00070BD00000B4910B5A1F17C020A4CC2E9A4
:100600003712372106E000EB104342F82130074B48
:1006100000FB03400B1EA1F10101F4DC10BD012021
:10062000E8E7000038560020E119D666CD0D01003C
:10063000421E12F8013F002BFBD111F8013B002BA9
:1006400002F8013BF9D17047032A40F2308010F0E4
:10065000030C00F0158011F8013BBCF1020F62445D
:1006600098BF11F801CB00F8013B38BF11F8013BEE
:10067000A2F1040298BF00F801CB38BF00F8013B9B
:1006800011F0030300F02580083AC0F0088051F80B
:10069000043B083A51F804CBA0E80810F5E7121D16
:1006A0005CBF51F8043B40F8043BAFF30080D20735
:1006B00024BF11F8013B11F801CB48BF11F8012B01
:1006C00024BF00F8013B00F801CB48BF00F8012B24
:1006D000704710B5203AC0F00B80B1E81850203AAE
:1006E000A0E81850B1E81850A0E81850BFF4F5AFD2
:1006F0005FEA027C24BFB1E81850A0E8185044BF5C
:1007000018C918C0BDE810405FEA827C24BF51F8C8
:10071000043B40F8043B08BF7047D20728BF31F8BC
:10072000023B48BF11F8012B28BF20F8023B48BF0D
:1007300000F8012B704702F0FF0343EA032242EA6C
:10074000024200F002B84FF000020429C0F012800B
:1007500010F0030C00F01B80CCF1040CBCF1020F74
:1007600018BF00F8012BA8BF20F8022BA1EB0C0149
:1007700000F00DB85FEAC17C24BF00F8012B00F83F
:10078000012B48BF00F8012B70474FF0000200B565
:10079000134694469646203922BFA0E80C50A0E8A4
:1007A0000C50B1F12001BFF4F7AF090728BFA0E852
:1007B0000C5048BF0CC05DF804EB890028BF40F81E
:1007C000042B08BF704748BF20F8022B11F0804F60
:1007D00018BF00F8012B704770477047704770478B
:1007E00000487047A056002010B5FFF7F9FF0068D9
:1007F00010BD10B50446FFF7F3FF046010BD2DE9EE
:10080000F0470D4699469246044600F124080168D7
:10081000880604D5E06921F01001216000E0012084
:10082000A84201DD471B00E00027A1697A1902EB0D
:100830000900081AA0612078C00602D42046AFF350
:100840000080002608E0D4E901211AF8060090474C
:10085000206A401C761C20624E45F4DB2078C006DE
:100860000AD52046AFF3008006E0D4E9012130200C
:100870009047206A401C2062381EA7F10107F4DC73
:1008800007E0D4E9012118F805009047206A401CD0
:100890002062281EA5F10105F3DC2046AFF300809D
:1008A0002078000602D50220BDE8F0870120FBE792
:1008B00001694A1C02610878704700B58FB0CDE924
:1008C00001310021059105497944CDE90310114614
:1008D0006846FFF711FE0FB000BD0000E5FFFFFF07
:1008E0000A6802F8010B0A6070472DE9F04791464B
:1008F0000F4680460446002614F8015B2DB100F037
:1009000031F80068405DC007F6D12B2D02D02D2DA7
:1009100018D0641E4A463946204600F02BF827B10D
:100920003968A14201D1C7F800804FF00204710577
:100930000BD54042002803DDFFF752FF0460A007FB
:10094000BDE8F08746F48066E4E70028F8DAFFF7B0
:1009500047FF04606FF00040F2E700000048704776
:10096000A056002010B500F079F8001D10BD00BFA2
:10097000C1C100002DE9F05F824615468B46002775
:100980000AF10104B9460078302801D09DB113E086
:1009900014F8010B0127782803D0582801D045B15D
:1009A0000AE00DB1102D07D1002714F8010B102516
:1009B00002E0082500E00A250026B0460EE005FB0F
:1009C000080005FB06F101271FFA80F801EB10462D
:1009D000B6F5803F00D3B94614F8010B294600F064
:1009E00041F80028EBDABBF1000F05D00FB1641E0F
:1009F00000E05446CBF80040B9F1000F06D0FFF7F5
:100A0000EFFE02210160C81EBDE8F09F48EA0640E3
:100A1000FAE77546FFF7A2FFAE4605006946534662
:100A200020F00700854618B020B5FFF7C7FCBDE8E9
:100A300020404FF000064FF000074FF000084FF045
:100A4000000B21F00701AC46ACE8C009ACE8C009D6
:100A5000ACE8C009ACE8C0098D4670470048704753
:100A6000C05600203A2800D2303820F02002412A17
:100A700001D3A2F13700884201D34FF0FF30704715
:100A800010B50446AFF300802046BDE81040FFF7E4
:100A900006BC00004FF0013C50F8042B51F8043B19
:100AA0009A4221D1A2EB0C03934313EACC1317D142
:100AB00050F8042B51F8043B9A4215D1A2EB0C03D9
:100AC000934313EACC130BD150F8042B51F8043B99
:100AD0009A4209D1A2EB0C03934313EACC13DBD067
:100AE0004FF00000704700BFD01A01BAB1FA81F18F
:100AF00001F0180122FA01F0CB40C1F12001DBB274
:100B0000C0B2C01A2CFA01F3D11A914311EAC311F1
:100B1000E6D1704700BFFEE710B5024800F030FB99
:100B200010BD00004C04002010B5024800F028FB66
:100B300010BD00007404002000B58BB0282101A86E
:100B4000FFF723FE002006900190029007900120FD
:100B50000890002003900490012009900E200A9034
:100B60000020059001A90D4800F0BAF90B4800F0EB
:100B7000CCFD0221094800F0F3F80E200690002079
:100B8000059001A9064800F0ABF9054800F0BDFD4D
:100B90000221034800F0E4F80BB000BD4C04002033
:100BA00074040020002008E00749095C074A11543A
:100BB0000021054A1154411CC8B20A28F4DB002167
:100BC000034A1170704700005C54002066540020F6
:100BD000D002002010B5024800F03CFE10BD00001D
:100BE0006006002010B5024800F034FE10BD000081
:100BF000C00600200146087810381823B0FBF3F235
:100C00000848805CC865032A05D908686FF30900A5
:100C1000001D886503E008686FF309008865886D2A
:100C2000704700001CD90008014600208A6A8B69C1
:100C3000CBB932B1012A0DD0022A03D0032A10D138
:100C40000EE000BFCB6A03F08073B3F1807F00D168
:100C5000012007E0CB6AB3F1C07F00D1012001E0A1
:100C600000E000BF34E08B69B3F5005F1AD132B108
:100C7000012A07D0022A03D0032A11D10AE000BFBB
:100C800001200EE0CB6A03F08073B3F1807F00D1C6
:100C9000012006E0CB6AB3F1C07F00D1012000E063
:100CA00000BF15E032B1012A05D0022A04D0032A80
:100CB0000CD103E000BF00BF012008E0CB6A03F0C5
:100CC0008073B3F1807F00D1012000E000BF00BF3E
:100CD000704730B50468246824F4802405682C60CB
:100CE000046863608468402C04D10468A2600468CE
:100CF000E16003E00468A1600468E26030BD704711
:100D000072B600BFFEE7000030B5034613B94FF6D8
:100D1000FF7030BD09E013F8014B82EA0400C0B255
:100D2000054D35F8100080EA2222081EA1F10101CC
:100D3000F1D11046EDE7000040DA000830B5034677
:100D400005E013F8010B80EA02040448025D081E66
:100D5000A1F10105A9B2F4D1104630BD3DD900087A
:100D600010B5024692F82030012B01D0022B06D19B
:100D700010684069084314686061002010BD506A23
:100D800040F4802050620120F8E7F0B504460D469B
:100D90001E4694F8207020688368A86800B900E0B7
:100DA00000BF012F01D0022F7CD103F0806030B949
:100DB00003F0006018B903F08050002873D0C3F32B
:100DC0000161022905D9606A40F4000060620120D7
:100DD000F0BD012088403060A86860B9B5F800C057
:100DE000E86840EA4C5C206800F5C07000EB011038
:100DF000C0F800C00FE0D5E901C040EACC00D5F84A
:100E00000CC040EA0C00D4F800C00CF5C07C0CEB20
:100E1000011CCCF80000D5F810C0206800F5C070A7
:100E200000EB0110C0F804C0287D01280ED1206815
:100E300000F5C07000EB0110406840F4807C206831
:100E400000F5C07000EB0110C0F804C0D0790006B6
:100E500092F806C040EA0C4092F805C040EA0C2C1B
:100E600010794CEA000C206800F5C07000EB01100E
:100E7000C0F80CC0D078000692F802C040EA0C40DE
:100E800092F801C040EA0C2092F800C040EA0C0041
:100E9000D4F800C00CF5C07C0CEB011CCCF80800A9
:100EA000206801E016E00FE000F5C07000EB0110D3
:100EB000006840F0010C206800F5C07000EB0110E4
:100EC000C0F800C0002083E7606A40F40010606250
:100ED00001207DE7606A40F480206062012077E7AE
:100EE000F0B504460A46216894F82050012D01D03F
:100EF000022D7ED1424901F50071086840F00100E1
:100F00000860086820F47C5008600868566A40EA67
:100F100006200860107D00F01F06012000FA06F38D
:100F2000C8699843C861A1F50071D069C8B9D1F802
:100F30000C029843C1F80C02908880B2968940EA6E
:100F4000064601F51070576940F83760108880B286
:100F5000168940EA064601F51070576900EBC70094
:100F60004660D069012819D1D1F80C021843C1F8A4
:100F70000C02908880B2168840EA064601F510708F
:100F8000576940F83760908980B2168940EA064672
:100F900001F51070576900EBC7004660906928B9E9
:100FA000D1F804029843C1F8040204E0D1F8040225
:100FB0001843C1F80402106928B9D1F81402984303
:100FC000C1F8140204E0D1F814021843C1F8140265
:100FD000106A012804D1D1F81C021843C1F81C0280
:100FE000D1F8000220F00100C1F800020020F0BD9D
:100FF000FFE7606A40F4802060620120F7E70000AC
:1010000000640040704770B5044694F82050012DEC
:1010100001D0022D7DD151B92068C06800F00300D5
:1010200080B9606A40F400106062012070BD2068E1
:10103000006900F0030028B9606A40F400106062A3
:101040000120F3E7206800F5D87000EB011000687C
:1010500000F004009060906840B9206800F5D870F6
:1010600000EB01100068400D106007E0206800F5FB
:10107000D87000EB01100068C0085060206800F5CF
:10108000D87000EB0110006800F00200D06020680A
:1010900000F5D87000EB0110406800F00F001061FF
:1010A000206800F5D87000EB0110406800F47F4024
:1010B000000A9061206800F5D87000EB01104068CC
:1010C000000C5061206800F5D87000EB01108068BA
:1010D0001870206800F5D87000EB0110806800F4EB
:1010E0007F40000A5870206800F5D87000EB0110AE
:1010F000806800F47F00000C9870206800F5D870BC
:1011000000EB01108068000ED870206800F5D870E0
:1011100000E02FE000EB0110C0681871206800F5B6
:10112000D87000EB0110C06800F47F40000A5871CD
:10113000206800F5D87000EB0110C06800F47F0053
:10114000000C9871206800F5D87000EB0110C068A1
:10115000000ED87131B92068C06840F020002668C0
:10116000F06005E02068006940F0200026683061EA
:1011700000205BE7606A40F480206062012055E750
:101180002DE9F05F04460025206846692068D0F804
:101190000490206887682068D0F80CA02068D0F8F8
:1011A00010B02068D0F8188006F00100002855D053
:1011B00007F00100C0B101202168886007F002003B
:1011C00018B1204600F0D1FA0EE007F0040010B18B
:1011D00045F4006508E007F0080010B145F48055BB
:1011E00002E0204600F0C0FA07F48070C8B14FF466
:1011F00080702168886007F4007018B1204600F004
:10120000B6FA0EE007F4806010B145F4005508E02E
:1012100007F4006010B145F4804502E0204600F07C
:10122000A5FA07F48030C8B14FF480302168886097
:1012300007F4003018B1204600F09BFA0EE007F4E6
:10124000802010B145F4004508E007F4002010B1FB
:1012500045F4803502E0204600F08AFA06F00800E6
:1012600038B10AF0100020B145F400751020216853
:10127000C86006F0040040B10AF0080028B1082058
:101280002168C860204600F00FFA06F0020038B16D
:101290002068C06800F0030010B1204600F006FA94
:1012A00006F0400038B10BF0100020B145F4806525
:1012B00010202168086106F0200040B10BF0080002
:1012C00028B1082021680861204600F01BFA06F0CA
:1012D000100038B12068006900F0030010B120460A
:1012E00000F011FA06F4003040B109F0100028B106
:1012F000102021684860204600F006FA06F480308D
:1013000040B109F0080028B1082021684860204653
:1013100000F030FA06F4004088B309F0040078B316
:1013200006F4807020B108F0010008B145F0010515
:1013300006F4007020B108F0020008B145F0020583
:1013400006F4806020B108F0040008B145F00405FF
:1013500006F40060A0B108F0700088B108F07000D9
:10136000402817D006DC10280BD020280CD03028BD
:1013700019D10CE0502810D0602814D110E01DE0E5
:1013800019E045F008050FE045F010050CE045F0C8
:10139000200509E045F0400506E045F0800503E042
:1013A00045F4807500E000BF00BF2068806920F030
:1013B0007000216888610420216848602DB1606A4E
:1013C000284360622046FFF71DFEBDE8F09F70B520
:1013D00004460CB9012070BD94F8200010B92046D5
:1013E00000F0B0F82068006840F001002168086053
:1013F00000F03AFD05460DE000F036FD401B0A28DE
:1014000008D9606A40F400306062052084F820004A
:101410000120E0E72068406800F001000028EBD0E0
:101420002068006820F002002168086000F01CFDC0
:1014300005460DE000F018FD401B0A2808D9606A37
:1014400040F400306062052084F820000120C2E7EB
:101450002068406800F002000028EBD1207E0128BF
:1014600006D12068006840F080002168086005E02F
:101470002068006820F0800021680860607E0128F4
:1014800006D12068006840F040002168086005E04F
:101490002068006820F0400021680860A07E0128D4
:1014A00006D12068006840F020002168086005E04F
:1014B0002068006820F0200021680860E07E012894
:1014C00006D12068006820F010002168086005E05F
:1014D0002068006840F0100021680860207F012823
:1014E00006D12068006840F008002168086005E027
:1014F0002068006820F0080021680860607F0128EB
:1015000006D12068006840F004002168086005E00A
:101510002068006820F0040021680860D4E9020116
:10152000084321690843616908436168491E08430B
:101530002168C86100206062012084F8200000203A
:1015400049E7000010B586B00446142101A8FFF752
:101550001CF94F492068884241D14E480068401C20
:101560004C4908600846006801280FD100BF0020E0
:1015700000904948006840F00070474908600846FC
:10158000006800F00070009000BF00BF00BF0020A6
:10159000009041481038006840F008003E4910397A
:1015A00008600846006800F00800009000BF00BF17
:1015B0000320019002200290002003900320049059
:1015C0000920059001A9354800F038FB00220521CB
:1015D000142000F07DFF142000F06AFF55E0304930
:1015E0002068884251D100BF002000902A4800683E
:1015F00040F08060284908600846006800F080607C
:10160000009000BF00BF23480068401C21490860CB
:101610000846006801280FD100BF002000901E4836
:10162000006840F000701C4908600846006800F03F
:101630000070009000BF00BF00BF0020009016485F
:101640001038006840F0020013491039086008465D
:10165000006800F00200009000BF00BF4FF440504F
:1016600001900220029000200390032004900920A2
:10167000059001A90B4800F0E1FA00220521402065
:1016800000F026FF402000F013FF06B010BD000060
:10169000006400403C00002040380240000C024042
:1016A00000680040000402407047000010B5044686
:1016B0000E492068884209D10D4B0E4A0021204670
:1016C000FFF7A1FC0A490B4805F0B4FD0A49206860
:1016D000884209D1094B0A4A00212046FFF793FCB2
:1016E0000649074805F0D6FD10BD00000064004023
:1016F0001C000020E4030020006800402C000020B3
:101700001804002070477047704770B5044694F87D
:101710002000012822D1022084F8200020680068DF
:1017200020F001002168086000F09EFB05460DE0F6
:1017300000F09AFB401B0A2808D9606A40F4003088
:101740006062052084F82000012070BD2068406898
:1017500000F001000028EBD16062F6E7606A40F417
:10176000002060620120F0E77047704770477047C3
:1017700070477047704770B50446A56D00F074FB64
:10178000064694F83500022808D08020606500BF26
:10179000002084F8340000BF012070BD206800687C
:1017A00020F01600216808602068406920F0800061
:1017B00021684861206C08B9A06C28B120680068D5
:1017C00020F00800216808602068006820F001000F
:1017D0002168086010E000F047FB801B05280BD94A
:1017E00020206065032084F8350000BF002084F8C5
:1017F000340000BF0320D0E72068006800F001003B
:101800000028E8D194F85C103F208840A8600120AF
:1018100084F8350000BF002084F8340000BF00BF0A
:10182000BBE7014691F83500022803D080204865C7
:1018300001207047052081F835000868006820F015
:1018400001000A6810600020F3E7014691F83500B6
:1018500070470000F8B50446002000908C480068EE
:101860004FF41651B0FBF1F7A56D2E6894F85C109B
:1018700008208840304098B12068006800F00400DB
:1018800070B12068006820F004002168086094F8B6
:101890005C1008208840A860606D40F00100606521
:1018A00094F85C1001208840304068B1206840699D
:1018B00000F0800040B194F85C1001208840A860DE
:1018C000606D40F00200606594F85C100420884070
:1018D000304068B12068006800F0020040B194F820
:1018E0005C1004208840A860606D40F004006065D2
:1018F00094F85C1010208840304078B3206800686D
:1019000000F0080050B394F85C1010208840A860E4
:101910002068006800F4802080B12068006800F42E
:10192000002028B9206CC8B12046216C884715E0FA
:10193000A06C98B12046A16C88470FE02068006831
:1019400000F4807028B92068006820F00800216841
:101950000860206C10B12046216C884794F85C1018
:10196000202088403040002865D02068006800F0C2
:10197000100000285FD094F85C1020208840A860F8
:1019800094F83500052828D12068006820F016005A
:10199000216808602068406920F080002168486163
:1019A000206C08B9A06C28B12068006820F00800FD
:1019B0002168086094F85C103F208840A8600120EE
:1019C00084F8350000BF002084F8340000BF206D8B
:1019D00010B12046216D8847F8BD2068006800F4EA
:1019E000802080B12068006800F4002028B9606C75
:1019F00010B12046616C88471DE0E06BD8B12046ED
:101A0000E16B884717E02068006800F4807068B9CF
:101A10002068006820F0100021680860012084F828
:101A2000350000BF002084F8340000BFE06B10B127
:101A30002046E16B8847606D38B3606D00F00100AF
:101A4000F0B1052084F835002068006820F001001E
:101A50002168086000BF0098401C0090B84200D97F
:101A600005E02068006800F001000028F3D100BF05
:101A7000012084F8350000BF002084F8340000BF46
:101A8000E06C10B12046E16C884700BFA4E700007D
:101A9000580000202DE9F0410446002500F0E4F94B
:101AA000074614B90120BDE8F081606A00B100BFAB
:101AB000022084F8350000BF002084F8340000BF05
:101AC0002068006820F00100216808600AE000F04A
:101AD000CBF9C01B052805D920206065032084F8B8
:101AE0003500E0E72068006800F001000028EED132
:101AF0002068056821480540D4E901010843E168F0
:101B000008432169084361690843A1690843E16901
:101B10000843216A08430543606A042803D1D4E9D5
:101B20000B0108430543206805602068456925F0DE
:101B30000705606A0543606A04280DD1A06A054361
:101B4000E06A48B12046FFF76FF828B14020606591
:101B5000012084F83500A6E7206845612046FFF79C
:101B600049F8064694F85C103F208840B060002099
:101B70006065012084F83500002094E73F8010F074
:101B80002DE9F04704460D4616461F464FF0000863
:101B9000D4F8589000BF94F83400012802D10220F4
:101BA000BDE8F087012084F8340000BF94F83500C8
:101BB000012825D1022084F83500002060653B46CD
:101BC000324629462046FFF784F894F85C103F20FF
:101BD0008840C9F808002068006840F016002168B5
:101BE0000860206C28B12068006840F00800216877
:101BF00008602068006840F001002168086006E085
:101C000000BF002084F8340000BF4FF002084046B7
:101C1000C6E7000070B5044600F026F906462546E2
:101C2000681C10B104480078054400BF00F01CF99E
:101C3000801BA842FAD370BD54000020F8B50246BC
:101C40000B460025002400200021E0E0012606FAD2
:101C500001F51E6806EA0504AC4274D11E7906F04F
:101C60000306012E04D01E7906F00306022E13D1BE
:101C700090684F000326BE40B0434F00DE68BE4070
:101C800030439060506801268E40B0431E79C6F301
:101C900000168E40304350601E7906F00306032E76
:101CA00009D0D0684F000326BE40B0434F009E6865
:101CB000BE403043D0601E7906F00306022E13D1D9
:101CC000CF0802F1200656F827004E07F70E0F2620
:101CD000BE40B0434F07FF0E1E69BE403043CF08E1
:101CE00002F1200646F8270010684F000326BE4088
:101CF000B0431E7906F003064F00BE40304310602B
:101D00005E6806F44036002E1DD000BF0026009607
:101D1000414E366846F480463F4F3E603E46366848
:101D200006F48046009600BF00BF3C4E8F0856F870
:101D300027008E07370F0F26BE40B043384EB24201
:101D400002D100262EE061E0364EB24201D10126DA
:101D500028E0354EB24201D1022623E0334EB24292
:101D600001D103261EE0324EB24201D1042619E011
:101D7000304EB24201D1052614E02F4EB24201D1BD
:101D800006260FE02D4EB24201D107260AE02C4E66
:101D9000B24201D1082605E02A4EB24201D10926FD
:101DA00000E00A268F073F0FBE4030431B4E8F08CE
:101DB00046F82700244E3068A0435E6806F480167B
:101DC00006B12043204E3060361D3068A0435E6867
:101DD00006F4001606B120431B4E361D30601A4E25
:101DE000361F3068A0435E6806F4003606B1204313
:101DF000154E361F3060361F3068A0435E6806F40B
:101E0000803606B12043104E083E3060491C102930
:101E1000FFF41CAFF8BD0000443802400838014010
:101E2000000002400004024000080240000C024092
:101E3000001002400014024000180240001C024042
:101E40000020024000240240083C01400246136981
:101E50000B400BB1012000E0002070470AB1816106
:101E600001E00B048361704701480068704700007F
:101E70004C000020024692F83D0020281ED124206C
:101E800082F83D001068006820F0010013681860B7
:101E90001068406A20F01000136858621068406AA9
:101EA0000843136858621068006840F00100136826
:101EB0001860202082F83D00002070470220FCE7D7
:101EC00010B502460B46002192F83D0020281DD196
:101ED000242082F83D001068006820F0010014689A
:101EE00020601068406A81B221F00F0141EA0300CE
:101EF00081B2106841621068006840F00100146807
:101F00002060202082F83D00002010BD0220FCE768
:101F1000704770472DE9F04705464FF000092868E3
:101F20004668D5F82CA095F83E7095F83D80102FA6
:101F300001D0402F75D12868D0F8189028684469DE
:101F400004F0010060B9BAF52A0F02D0BAF12A4FA5
:101F500001D1012000E00020012801D1BDE8F08777
:101F600004F0010048B1C6F3402030B1284601F02A
:101F7000B9FE284602F026FBB7E0C4F3C00030B13A
:101F8000C6F3402018B1284602F0D3F9ADE0C4F3FF
:101F9000400030B1C6F3402018B1284602F0DEF907
:101FA000A3E0C9F3800040B32868406800F40060F3
:101FB000B0F5006FE0D0C4F3C01048B1C6F3802084
:101FC00030B1C4F3800018B9284602F046F98CE01D
:101FD000C4F380000028CFD0C6F340200028CBD027
:101FE000B8F1210F03D1284602F0E7F87DE0402F39
:101FF0007BD1284602F035FB77E02868406800F482
:102000000060B0F5006F70D0C4F3801050B1C6F31B
:10201000802038B1C4F3800020B9284602F055F87A
:1020200063E00BE0C4F3800000285ED0C6F34020DC
:1020300000285AD0284601F0B5FF56E0286C10B1B0
:102040002868446904E02868D0F818902868446932
:10205000C4F3400060B1C6F3402048B1286C10B111
:102060002868D0F818904946284602F0B9FB3CE0B1
:10207000C4F3001030B1C6F3402018B1284602F076
:10208000E7FB32E0B8F1210F02D0B8F1290F16D1E9
:10209000C4F3C01048B1C6F3802030B1C4F380004F
:1020A00018B9284602F079FB1FE0C4F38000E0B1C4
:1020B000C6F34020C8B1284602F062FB15E0C4F325
:1020C000801048B1C6F3802030B1C4F3800018B945
:1020D000284602F032FB08E0C4F3800028B1C6F3C2
:1020E000402010B1284602F01BFB00BF36E77047C6
:1020F00070B504460CB9012070BD94F83D0028B9B4
:10210000002084F83C00204600F0E0F8242084F809
:102110003D002068006820F0010021680860206808
:10212000006840F40040216808602068006820F4DE
:1021300000402168086000F04DFB05465C4960687E
:10214000884206D85B48854201D2012007E0002082
:1021500005E05948854201D2012000E00020012815
:1021600000D1C9E75548B5FBF0F62068406820F07B
:102170003F003043216848604D496068884201D87B
:10218000701C07E04FF4967070434FF47A71B0FB07
:10219000F1F0401C2168096A21F03F0108432168E1
:1021A000086243496068884214D8681E6168490023
:1021B000B0FBF1F0401CC0F30B00042801D2042056
:1021C0003DE0681E61684900B0FBF1F0401CC0F3BF
:1021D0000B0034E0A06838B9681E616801EB41016A
:1021E000B0FBF1F0401C0AE0681E616801EBC1021F
:1021F00002EB0111B0FBF1F0401C40F48040C0F351
:102200000B0008B901201AE0A06848B9681E61688F
:1022100001EB4101B0FBF1F0401CC0F30B000CE0FE
:10222000681E616801EBC10202EB0111B0FBF1F025
:10223000401CC0F30B0040F4804040F40040216893
:10224000C9694CF6FF72914308432168C861D4E91B
:10225000070108432168096821F0C001084321688B
:102260000860D4E9031008432168896848F2FF3206
:102270009143084321688860D4E905010843216837
:10228000C96821F0FF0108432168C8602068006820
:1022900040F001002168086000202064202084F8BC
:1022A0003D000020206384F83E0000BF24E70000CA
:1022B000A086010080841E0000093D0040420F00FE
:1022C00070477047704770477047000010B586B080
:1022D0000446142101A8FEF758FA1F4920688842D5
:1022E00037D100BF002000901C48006840F020005B
:1022F0001A4908600846006800F02000009000BFFE
:1023000000BF0320019012200290002003900320C0
:1023100004900420059001A91148FFF78FFC00BF2D
:10232000002000900D481030006840F480000B49F8
:10233000103108600846006800F48000009000BF7B
:1023400000BF00220521212000F0C2F8212000F06A
:10235000AFF806B010BD0000005800403038024011
:102360000014024070477047034800680349097829
:1023700008440149086070474C00002054000020C8
:1023800010B50D48006840F400700B49086008461D
:10239000006840F4806008600846006840F480707F
:1023A0000860032000F0D2F8052000F007F800F0E4
:1023B00055F8002010BD0000003C0240F0B587B089
:1023C00004460026002700BF002000901E48006839
:1023D00040F001001C4908600846006800F0010058
:1023E000009000BF00BF01A902A800F0CBF900F0E7
:1023F00001FA46001548B6FBF0F0471E144815498F
:10240000086040F2E7311348C16047600021016174
:102410008160816100F0D2FE054695B90D4800F05B
:1024200043FF05466DB9192000F042F8102C07D281
:1024300000222146192000F04BF80748046000E014
:102440000125284607B0F0BD4438024040420F0045
:1024500000000140200700205000002008B500BF08
:10246000002000901148006840F480400F49086047
:102470000846006800F48040009000BF00BF00BF25
:1024800000200090081F006840F08050091F08607D
:102490000846006800F08050009000BF00BF002296
:1024A0000F21901E00F014F808BD000044380240CF
:1024B00001460846002809DB00F01F0301229A406C
:1024C00043099B0003F1E023C3F8002100BF7047DC
:1024D0002DE9F05F80460D461646002703F034FDD7
:1024E000074639462A46334601F00700C0F1070A7D
:1024F000BAF1040F02D94FF0040A01E0C0F1070A53
:10250000D14600F1040ABAF1070F02D24FF0000AD7
:1025100001E0A0F1030AD4464FF0010A0AFA09FAD1
:10252000AAF1010A0AEA020A0AFA0CFA4FF0010BB0
:102530000BFA0CFBABF1010B0BEA030B4AEA0B04A1
:102540002146404603F008FDBDE8F09F00BF00F0C3
:102550000702064B19684FF6FF031940044B0B4363
:1025600043EA0221014B196000BF70470CED00E007
:102570000000FA0538B5002400BF002000901D4877
:10258000006840F080501B4908600846006800F071
:102590008050009000BF00BF012017490864FFF77A
:1025A00063FC044607E0FFF75FFC001BB0F57A7F91
:1025B00001D9032038BD1148406800F48030B0F5DF
:1025C000803FF0D101200C494864FFF74DFC0446E0
:1025D00007E0FFF749FC001BB0F57A7F01D9032023
:1025E000E8E70648406800F40030B0F5003FF0D15D
:1025F0000020DFE74038024000000E42007000403B
:1026000070B504460D460CB9012070BD58480068ED
:1026100000F00F00A84209D255490D700846006825
:1026200000F00F00A84201D00120EEE7207800F072
:10263000020002281DD1207800F00400042805D1F2
:102640004C48006840F4E0504A490860207800F0A7
:102650000800082805D14748006840F46040454913
:1026600008604448006820F0F000A1680843414930
:102670000860207800F00100A8B36068012807D145
:102680003C4808380068C0F34040B8B90120BCE7B6
:102690006068022802D06068032807D135480838EE
:1026A0000068C0F3406048B90120AEE731480838FF
:1026B0000068C0F3400008B90120A6E72D48006873
:1026C00020F00300616808432A490860FFF7CCFB4B
:1026D000064609E0FFF7C8FB801B41F288318842BB
:1026E00002D9032091E707E02248006800F00C00BF
:1026F0006168B0EB810FEDD11D48006800F00F005C
:10270000A84209D91A490D700846006800F00F0068
:10271000A84201D0012078E7207800F004000428C6
:1027200007D11448006820F4E050E16808431149DB
:102730000860207800F00800082808D10D480068DB
:1027400020F46040216940EAC1000A49086000F0B5
:1027500061F808490968C1F30311074A515CC84090
:102760000649086006480068FFF728FE00204CE78D
:10277000003C02400838024024D9000858000020DC
:10278000500000200F2202600D4A126802F003027E
:1027900042600B4A126802F0F0028260084A126836
:1027A00002F4E052C260064A126802F46042D208A3
:1027B0000261044A126802F00F020A6070470000CA
:1027C00008380240003C02400148006870470000A1
:1027D0005800002000B5FFF7F7FF04490968C1F36E
:1027E0008221034A515CC84000BD00000838024005
:1027F00034D9000800B5FFF7E7FF04490968C1F3C1
:102800004231034A515CC84000BD00000838024014
:1028100034D900082DE9F047002400250026A14600
:102820002548006800F00C0020B1042805D00828D5
:102830003AD105E0DFF8849039E0DFF8849036E0A3
:102840001D48001F006800F03F041B48001F00687F
:1028500000F4800078B11A481749091F0968C1F3CC
:102860008811A0FB01700146224600233846FDF77F
:10287000B8FD05460EE011480F49091F0968C1F36C
:102880008811A0FB01700146224600233846FDF75F
:10289000A8FD05460848001F0068C0F30140401C21
:1028A0004600B5FBF6F902E0DFF8109000BF00BF6C
:1028B0004846BDE8F0870000083802400024F400D4
:1028C000001BB700F8B504460CB90120F8BD20780C
:1028D00000F00100002874D0F948006800F00C00F6
:1028E00004280DD0F648006800F00C00082813D129
:1028F000F348001F006800F48000B0F5800F0BD192
:10290000EF4808380068C0F34040002859D060689C
:10291000002856D10120D9E700BF6068B0F5803F9C
:1029200008D1E7480838006840F48030E4490839A5
:1029300008601EE06068B0F5A02F0DD1E0480838AF
:10294000006840F48020DE490839086008460068C5
:1029500040F4803008600CE0D9480838006820F462
:102960008030D749083908600846006820F4802084
:10297000086000BF606890B1FFF776FA054606E090
:10298000FFF772FA401B642801D903209EE7CC4868
:1029900008380068C0F340400028F1D011E0FFF78C
:1029A00063FA054606E0FFF75FFA401B642801D989
:1029B00003208BE7C24808380068C0F34040002875
:1029C000F1D1207800F0020002285FD1BC480068F5
:1029D00000F00C0058B1BA48006800F00C0008285C
:1029E0001CD1B748001F006800F48000B0B9B4489B
:1029F00008380068C0F3400020B1E068012801D029
:102A0000012063E7AE480838006820F0F80021692B
:102A100040EAC100AA490839086037E0E06800B31D
:102A20000120A8490860FFF71FFA054606E0FFF7F6
:102A30001BFA401B022801D9032047E7A0480838A9
:102A40000068C0F340000028F1D09D4808380068B5
:102A500020F0F800216940EAC1009949083908606E
:102A600014E0002097490860FFF7FEF9054606E0EC
:102A7000FFF7FAF9401B022801D9032026E7904806
:102A800008380068C0F340000028F1D1207800F039
:102A9000080008282CD16069A8B101208A49086083
:102AA000FFF7E2F9054606E0FFF7DEF9401B0228D2
:102AB00001D903200AE782486C300068C0F3400067
:102AC0000028F1D014E000207F490860FFF7CCF91E
:102AD000054606E0FFF7C8F9401B022801D903208C
:102AE000F4E677486C300068C0F340000028F1D16C
:102AF000207800F00400042870D100277048383096
:102B0000006800F0805090B900BF002000906C4831
:102B10003830006840F08050694938310860084614
:102B2000006800F08050009000BF00BF0127674898
:102B3000006800F48070B0B96448006840F48070A8
:102B400062490860FFF790F9054606E0FFF78CF947
:102B5000401B022801D90320B8E65C48006800F455
:102B600080700028F2D000BFA068012808D1544826
:102B70006830006840F001005149683108601DE08C
:102B8000A06805280DD14E486830006840F0040068
:102B90004B49683108600846006840F00100086051
:102BA0000CE047486830006820F001004449683173
:102BB00008600846006820F00400086000BFA068B4
:102BC000A8B1FFF751F9054609E0FFF74DF9401BA1
:102BD00041F28831884202D9032077E626E038485E
:102BE00068300068C0F340000028EED013E0FFF723
:102BF0003BF9054608E0FFF737F9401B41F2883101
:102C0000884201D9032061E62D4868300068C0F38E
:102C100040000028EFD1012F07D129483830006843
:102C200020F0805026493831086000BFA069002894
:102C300045D02348006800F00C0008285DD0A0694A
:102C4000022845D100201F490866FFF70DF9054607
:102C500006E0FFF709F9401B022801D9032035E6F9
:102C6000174808380068C0F340600028F1D1D4E963
:102C700007010843616A40EA81110122A06AC2EBA0
:102C8000500041EA00412C20005D41EA00600C49FF
:102C9000091F086001200B490866FFF7E5F80546A3
:102CA00006E0FFF7E1F8401B022801D903200DE6FA
:102CB000034808380068C0F340600028F1D049E0BC
:102CC0000838024000004742800E47420070004032
:102CD000002021490866FFF7C7F8054606E0FFF720
:102CE000C3F8401B022801D90320EFE51B48006808
:102CF000C0F340600028F2D12CE0A069012800D187
:102D0000E4E51648001D0668A069012820D006F4F5
:102D10008001E06981421BD106F03F01206A8142B7
:102D200016D147F6C0703040616AB0EB811F0FD1F9
:102D300006F440310122A06AC2EB5000B1EB004F13
:102D400006D106F070612C20005DB1EB006F01D060
:102D50000120BBE50020B9E50000474200380240F1
:102D600010B504460CB9012010BD606A38B960681E
:102D7000B0F5827F00D105E00021E16102E0002191
:102D8000216161610021A16294F8510028B90020FD
:102D900084F85000204600F047F8022084F85100E3
:102DA0002068006820F0400021680860A08800F4D6
:102DB0008270218901F404410843A18901F4006172
:102DC0000843217C01F002010843217D01F001014B
:102DD0000843218B01F400710843217F01F0380181
:102DE00008432021095D01F080010843218D01F491
:102DF00000510843216808600421A06901EA1040DD
:102E000094F8241001F010010843216848602068FC
:102E1000C06920F400602168C8610020606501205D
:102E200084F8510000209FE710B586B004461421B5
:102E300001A8FDF7AAFC1B492068884230D100BFD9
:102E4000002000901848006840F48010164908607F
:102E50000846006800F48010009000BF00BF00BF6B
:102E60000020009010481438006840F020000E49FF
:102E7000143908600846006800F02000009000BF88
:102E800000BF4FF460700190022002900020039078
:102E9000032004900520059001A90448FEF7CEFE0A
:102EA00006B010BD005001404438024000140240FA
:102EB0002DE9FF5F0446884691461D460E9E01207F
:102EC00002900020019000BF94F85000012803D127
:102ED000022004B0BDE8F09F012084F8500000BF3C
:102EE000FEF7C2FF074694F851B060680390AA4607
:102EF000BBF1010F0BD00398B0F5827F04D1A0681D
:102F000010B9BBF1040F02D002200190DBE0B8F150
:102F1000000F03D0B9F1000F00D015B901200190C6
:102F2000D1E094F85100042802D0052084F8510023
:102F300000206065C4F83890E587A587C4F8308024
:102F4000E586A586206460642068006800F0400083
:102F5000402805D02068006840F0400021680860E3
:102F6000E068B0F5006F4AD1606810B1BAF1010FA6
:102F700009D1206B00882168C860206B801C206309
:102F8000E08E401EE08633E02068806800F002009A
:102F9000022810D1E08E70B1029801280BD1206B6D
:102FA00000882168C860206B801C2063E08E401E72
:102FB000E086002002902068806800F0010068B17F
:102FC000E08F58B12068C068A16B0880A06B801C9E
:102FD000A063E08F401EE08701200290FEF744FFCF
:102FE000C01BB04204D3701C10B1032001906AE0F2
:102FF000E08E0028C8D1E08F0028C5D14AE0606883
:1030000010B1BAF1010F09D1206B00782168087363
:10301000206B401C2063E08E401EE08634E0206878
:10302000806800F00200022810D1E08E70B1029892
:1030300001280BD1206B007821680873206B401C9D
:103040002063E08E401EE0860020029020688068A9
:1030500000F0010068B1E08F58B12068C068A16B32
:103060000870A06B401CA063E08F401EE087012029
:103070000290FEF7F9FEC01BB04201D3701C00B9EC
:1030800016B9032001901EE0E08E0028C7D1E08F22
:103090000028C4D13A463146204601F0E5FF20B170
:1030A00001200190202060650DE0A06850B900BFAC
:1030B000002000902068C068009020688068009020
:1030C00000BF00BF00BF012084F8510000BF0020F6
:1030D00084F8500000BF0198FBE6042808D14FF0A7
:1030E000E021096941F004014FF0E022116107E09D
:1030F0004FF0E021096921F004014FF0E022116155
:10310000704770477047000030B502460B4600BF5D
:1031100092F83C00012801D1022030BD012082F844
:103120003C0000BF022082F83D001068446810682F
:10313000816824F070041868044310684460184DD6
:103140001068A8421BD01068B0F1804F17D0154D01
:103150001068A84213D0144D1068A8420FD0134D28
:103160001068A8420BD0124D1068A84207D0114D2C
:103170001068A84203D0104D1068A84205D121F074
:1031800080015868014310688160012082F83D0089
:1031900000BF002082F83C0000BF00BFBDE7000078
:1031A000000001400004004000080040000C004006
:1031B00000040140004001400018004010B50446E2
:1031C0000CB9012010BD94F83D0028B9002084F806
:1031D0003C00204600F026F8022084F83D00211D26
:1031E000206802F073F8012084F8460000BF84F8DC
:1031F0003E0001213F20015540200155412001554D
:1032000000BF00BF012084F8420043200155442044
:1032100001554520015500BF012084F83D000020E4
:10322000D0E7000038B504461C492068884218D110
:1032300000BF002000901A48006840F002001849C2
:1032400008600846006800F00200009000BF00BF60
:10325000002205211D20FFF73BF91D20FFF728F96B
:103260001BE010492068884217D100BF0020009061
:103270000B48006840F004000949086008460068EF
:1032800000F00400009000BF00BF002205211E20B6
:10329000FFF71EF91E20FFF70BF938BD00040040B0
:1032A0004038024000080040014691F83D000128E6
:1032B00001D001207047022081F83D000868C068F5
:1032C00040F001000B68D8601A4B086898421BD088
:1032D0000868B0F1804F17D0174B0868984213D098
:1032E000164B086898420FD0154B086898420BD0CF
:1032F000144B0868984207D0134B0868984203D0D3
:10330000124B086898420CD10868806800F00702E8
:10331000062A0CD00868006840F001000B681860AD
:1033200005E00868006840F001000B6818600020A4
:10333000C0E7000000000140000400400008004019
:10334000000C004000040140004001400018004013
:103350002DE9F04104460D46002700BF94F83C00DB
:10336000012802D10220BDE8F081012084F83C0050
:1033700000BF022084F83D002068866826F07706AA
:1033800026F47F46206886602868502833D00CDCFD
:10339000202850D004DC00284BD0102851D149E01F
:1033A000302849D040284CD139E060282DD07028F1
:1033B00007D0B0F5805F03D0B0F5005F41D10DE0DC
:1033C00041E0D5E902136A68206801F0EBFF20684C
:1033D000866846F077062068866034E0D5E90213F7
:1033E0006A68206801F0DEFF2068806840F4804051
:1033F0002168886027E0EA686968206801F0E6FFD4
:103400005021206801F0D9FF1DE0EA686968206852
:1034100001F0EFFF6021206801F0CFFF13E0EA68C0
:103420006968206801F0D2FF4021206801F0C5FFE3
:1034300009E000BF00BF00BF2968206801F0BDFFA0
:1034400001E0012700BF00BF012084F83D0000BF5C
:10345000002084F83C0000BF384684E7704710B570
:10346000044620680069C0F34000D8B12068C068F5
:10347000C0F34000B0B16FF0020021680861012084
:1034800020772068806900F0030018B12046FFF71C
:10349000E5FF05E0204600F0ADF8204600F0ABF86F
:1034A0000020207720680069C0F38000D8B1206830
:1034B000C068C0F38000B0B16FF0040021680861FB
:1034C000022020772068806900F4407018B12046FF
:1034D000FFF7C4FF05E0204600F08CF8204600F01E
:1034E0008AF80020207720680069C0F3C000D8B1B6
:1034F0002068C068C0F3C000B0B16FF00800216858
:103500000861042020772068C06900F0030018B12A
:103510002046FFF7A3FF05E0204600F06BF82046A9
:1035200000F069F80020207720680069C0F30010DF
:10353000D8B12068C068C0F30010B0B16FF01000BF
:1035400021680861082020772068C06900F4407075
:1035500018B12046FFF782FF05E0204600F04AF848
:10356000204600F048F8002020772068006900F02D
:10357000010058B12068C06800F0010030B16FF060
:10358000010021680861204600F036F820680069D3
:10359000C0F3C01058B12068C068C0F3C01030B18B
:1035A0006FF08000216808612046FFF7AAFD2068BF
:1035B0000069C0F3801058B12068C068C0F3801063
:1035C00030B16FF0400021680861204600F044F8F7
:1035D00020680069C0F3401058B12068C068C0F38B
:1035E000401030B16FF02000216808612046FFF7DD
:1035F00089FD10BD7047704710B50446104920681A
:10360000884201D1FEF7B0FE0E492068884216D1EB
:1036100001200D4908700D4802684068521C40F1B5
:1036200000000A490A60486001210948FEF70EFCC3
:10363000012804D107480068401D0649086010BDF4
:103640000000014000080040100000200800002099
:1036500000140240000000207047704770B5044617
:10366000002520684069C0F3C01594F83D0021286A
:1036700017D1B5B100BF00BF2168143151E8001F58
:1036800021F080002168143141E80002002AF3D1C2
:1036900000BF606B10B1606BFEF76DF8204601F063
:1036A0009CFF20684069C0F3801594F83E002228F2
:1036B00017D1B5B100BF00BF2168143151E8001F18
:1036C00021F040002168143141E80002002AF3D1C2
:1036D00000BFA06B10B1A06BFEF74DF8204601F0C3
:1036E00036FF002070BD70472DE9F84F0446206872
:1036F00005682068C668206847694FF00009CA4617
:1037000005F00F09B9F1000F0AD105F0200038B11A
:1037100006F0200020B1204601F072FFBDE8F88FCE
:10372000B9F1000F7CD007F0010018B906F49070D1
:10373000002875D005F0010030B106F4807018B192
:10374000206C40F00100206405F0040030B107F067
:10375000010018B1206C40F00200206405F0020066
:1037600030B107F0010018B1206C40F00400206473
:1037700005F0080048B106F0200010B907F001007C
:1037800018B1206C40F008002064206C002846D05E
:1037900005F0200028B106F0200010B1204601F00D
:1037A0002FFF20684069C0F3801A206C00F00800E9
:1037B00010B9BAF1000F2DD0204601F0C8FE2068E4
:1037C000406900F04000402820D100BF00BF2168C0
:1037D000143151E8001F21F040002168143141E804
:1037E0000002002AF3D100BFA06B50B17548A16B55
:1037F0000865A06BFEF715F888B1A06B016D8847CE
:103800000DE02046FFF76FFF09E009E02046FFF7D3
:103810006AFF04E02046FFF766FF002020647DE792
:10382000206B012876D105F01000002872D006F038
:1038300010000028FAD000BF002000902068006827
:10384000009020684068009000BF00BF2068406979
:1038500000F0400040285ED1A06B006840681FFA6D
:1038600080F8B8F1000F54D0A08D404551DDA4F888
:103870002E80A06BC069B0F5807F43D000BF00BF31
:1038800021680C3151E8001F21F4807021680C314F
:1038900041E80002002AF3D100BF00BF00BF216849
:1038A000143151E8001F21F001002168143141E872
:1038B0000002002AF3D100BF00BF00BF216814310D
:1038C00051E8001F21F040002168143141E8000256
:1038D000002AF3D100BF202084F83E00002020639E
:1038E00000BF00BF21680C3151E8001F21F010001B
:1038F00021680C3141E80002002AF3D100BFA06B1F
:10390000FDF739FFA08DE28D801A81B22046FFF7C6
:10391000A4FE03E740E0A08DE18D401A1FFA80F875
:10392000E08DC0B3B8F1000F35D000BF00BF2168F3
:103930000C3151E8001F21F4907021680C3141E8EE
:103940000002002AF3D100BF00BF00BF216814317C
:1039500051E8001F21F001002168143141E8000204
:10396000002AF3D100BF202084F83E00002020630D
:1039700000BF00BF21680C3151E8001F21F010008A
:1039800021680C3141E80002002AF3D100BF414612
:103990002046FFF762FEC1E605F0800030B106F078
:1039A000800018B1204602F04AF8B7E605F0400062
:1039B00030B106F0400018B1204601F0FEFDADE642
:1039C00000BFABE61B54000810B504460CB901203B
:1039D00010BDA06900B100E000BF94F83D0028B917
:1039E000002084F83C00204600F028F8242084F8C9
:1039F0003D002068C06820F400502168C86020465F
:103A000001F07AFE2068006920F490402168086186
:103A10002068406920F02A00216848612068C06859
:103A200040F400502168C86000202064202084F801
:103A30003D0084F83E000020CAE7000010B586B0C3
:103A40000446142101A8FCF7A0FE614920688842C1
:103A50007CD100BF002000905E48006840F48020C8
:103A60005C4908600846006800F48020009000BFB0
:103A700000BF00BF0020009056481038006840F09A
:103A800008005449103908600846006800F0080032
:103A9000009000BF00BF4FF44070019002200290E0
:103AA00000200390032004900720059001A94A48B4
:103AB000FEF7C4F849484A4908604FF00060486082
:103AC000002147488160C1604FF48061016100219D
:103AD00041618161C1614FF4403101620021416265
:103AE000FDF7D8FF08B1FDF70BF900BF3C48A06314
:103AF000846300BF394830303A4908604FF00060B5
:103B000048604021374881600021C1604FF48061E6
:103B10000161002141618161C1614FF44031016265
:103B200000214162FDF7B6FF08B1FDF7E9F800BFDB
:103B30002C486063846300BF002205212720FEF724
:103B4000C7FC2720FEF7B4FC3FE0FFE726492068CA
:103B500088423AD100BF002000901E48001D006836
:103B600040F020001B49091D08600846006800F06D
:103B70002000009000BF00BF00BF0020009015484B
:103B80001038006840F040001249103908600846BB
:103B9000006800F04000009000BF00BF4FF4844078
:103BA000019002200290002003900320049008203E
:103BB000059001A90D48FEF741F800220521472094
:103BC000FEF786FC4720FEF773FC06B010BD000030
:103BD0000048004040380240000C0240286002408B
:103BE00060060020C00600200014014000180240BA
:103BF00070B504460D46164694F83E00202816D1AE
:103C000005B10EB9012070BD00BF94F83C00012839
:103C100001D10220F7E7012084F83C0000BF00201A
:103C2000206332462946204601F07CFEEBE7022065
:103C3000E9E770B504460D46164694F83E00202884
:103C400016D105B10EB9012070BD00BF94F83C003B
:103C5000012801D10220F7E7012084F83C0000BFD1
:103C60000020206332462946204601F0C3FEEBE7E0
:103C70000220E9E738B5054600BF00200090104853
:103C80000068006800900E4800684068009000BF1F
:103C900000BF0B48FFF7E2FC0A4800684068C0F12B
:103CA0008000C4B2084806F033F921460648FCF704
:103CB0004AFD802204490248FFF79AFF38BD000000
:103CC000D8050020C006002064030020704770471C
:103CD00000BFFEE710B50248FEF71CF910BD00005A
:103CE0009C040020C16AB1F52A0F02D10121C162F2
:103CF00005E0C16AB1F12A4F01D10821C1627047C4
:103D0000F8B5054600200090AC6B94F83D6039484A
:103D100000681921B0FBF1F04FF47A71B0FBF1F0BB
:103D2000C0EBC00000EB8000009000BF009820B9FD
:103D3000206C40F02000206409E00098401E0090B4
:103D40002068006800F40070B0F5007FEED000BF7E
:103D5000606B10B10020616BC863A06B10B10020D4
:103D6000A16BC8632068006820F480602168086047
:103D700000206085606B10B10020616B0865A06B4E
:103D800010B10020A16B08652068006820F00100D8
:103D90002168086094F83D0060280AD1202084F84A
:103DA0003D00002084F83E0020642046FEF7B0F875
:103DB0001EE006F02800282811D12068006840F095
:103DC0000100216808602068006840F48060216874
:103DD000086000202063282084F83D0005E02020B2
:103DE00084F83D00002084F83E002046FEF77FF96D
:103DF000F8BD0000580000202DE9F041044694F879
:103E00003D6094F83E70102F01D0402F07D1222E34
:103E100005D12068006820F400602168086006F081
:103E20002800282805D100202063282084F83D00A0
:103E300010E02068406800F40060B0F5006F07D023
:103E4000602E05D0202084F83D00002084F83E003C
:103E5000002020632068406800F40060B0F5006F27
:103E600040D12068406820F4006021684860606BA1
:103E700090F83500012814D04848616B0865606BE4
:103E8000FDF7CFFC00285BD02068006820F001001F
:103E900021680860202084F83D00606B016D884730
:103EA0004EE03E48A16B0865A06BFDF7BAFC002808
:103EB00046D020684069C0F3801030B120680069A6
:103EC000616A0870606A401C60622068006820F0C7
:103ED000010021680860202084F83D00A06B016D7E
:103EE00088472DE094F83D0060281AD1202084F8FE
:103EF0003D000020206420684069C0F3801030B18C
:103F000020680069616A0870606A401C606220680D
:103F1000006820F00100216808602046FDF7F8FFE6
:103F20000EE020684069C0F3801030B1206800695D
:103F3000616A0870606A401C60622046FEF7D7F82C
:103F4000256C05F0010058B905F00200022807D0E1
:103F500005F00400042803D005F00800082805D166
:103F60002068406820F4E0602168486094F83D6073
:103F7000206C00F0040004280ED1282E0CD1084833
:103F8000E06200202063202084F83D00002084F8B7
:103F90003E002046FEF794F9BDE8F081013D00089F
:103FA0000000FFFF70B50446E56A608D042810D15B
:103FB0002068406820F480602168486020680069BB
:103FC000616A0870606A401C6062608D401E608596
:103FD0007AE0608D03281AD12068406820F4806060
:103FE00021684860042D07D0022D05D020680068A4
:103FF00020F480602168086020680069616A0870A8
:10400000606A401C6062608D401E60855CE0608D6F
:1040100002284FD1012D01D0102D06D12068006853
:1040200020F480602168086012E0042D01D0022D88
:1040300006D12068006840F480602168086007E0CD
:10404000102D05D02068006840F4007021680860D9
:1040500020680069616A0870606A401C6062608D57
:10406000401E608520680069616A0870606A401CB3
:104070006062608D401E60852068406820F440705A
:1040800021684860202084F83D0094F83E004028D4
:1040900007D1002084F83E0020632046FEF713F984
:1040A00012E0002084F83E00122020632046FEF734
:1040B00008F909E020680069616A0870606A401CBC
:1040C0006062608D401E608570BD70B5044694F8D6
:1040D0003D00222870D1658D032D13D92068006919
:1040E000616A0870606A401C6062608D401E608575
:1040F000608D03285FD12068406820F480602168CB
:10410000486058E0E06A02284FD0012D01D0002D10
:104110004BD1204600F062FC68BB2068006820F4A8
:104120008060216808602068406820F4E0602168B1
:10413000486020680069616A0870606A401C6062BB
:10414000608D401E6085202084F83D0094F83E007C
:10415000402807D1002084F83E0020632046FEF767
:10416000B2F828E0002084F83E00122020632046A8
:10417000FEF7A7F81FE02068406820F4E06021689F
:10418000486020680069616A0870606A401C60626B
:10419000608D401E6085202084F83D00002084F85A
:1041A0003E002046FDF7A3FF05E02068406820F4AC
:1041B00080602168486000BF70BD70B50446E56A44
:1041C00094F83D00212847D1608D50B1606A007895
:1041D00021680861606A401C6062608D401E6085D5
:1041E0003AE0082D16D0202D14D015F5803F11D0BF
:1041F0002068406820F4E060216848601120206356
:10420000002084F83E00202084F83D002046FEF780
:1042100059F821E02068406820F4E0602168486097
:104220002068006840F40070216808600020206366
:10423000202084F83D0094F83E00402806D100205C
:1042400084F83E002046FEF73FF805E0002084F8A1
:104250003E002046FEF736F870BD2DE9F0410446D9
:1042600094F83D5094F83E70E66A208DB0BB212D45
:104270003CD1082E16D0202E14D016F5803F11D038
:104280002068406820F4E0602168486011202063C5
:10429000002084F83E00202084F83D002046FEF7F0
:1042A00011F844E02068406820F4E060216848602C
:1042B0002068006840F400702168086000202063D6
:1042C000202084F83D0094F83E00402807D10020CB
:1042D00084F83E002046FDF7F7FF28E006E00020C6
:1042E00084F83E002046FDF7EDFF20E0212D03D0AD
:1042F000402F1CD1222D1AD1608D30B92068406822
:1043000020F480602168486011E094F83E00402865
:1043100003D1204600F0A5F909E0606A0078216821
:104320000861606A401C6062608D401E6085BDE867
:10433000F081416CC9B202681161416B11B1416BEE
:10434000C96B21B9816B41B1816BC96B29B101681E
:10435000496841F4006102685160704738B590F8CF
:104360003E20C16A036B90F83D40222C73D1046D4E
:1043700064B9402A0AD100BF00240094046864692B
:1043800000940468A469009400BF1AE1046DC4B9E4
:104390000469B4F5404F14D100BF002400940468B0
:1043A000646900940468A469009400BF00BF0468B5
:1043B000246844F4807405682C60046D641C0465F2
:1043C000FFE0448D8CB900BF002400940468646948
:1043D00000940468A469009400BF00BF04682468C6
:1043E00044F4007405682C60DDE0448D012C72D12A
:1043F00011F5803F30D10468246824F48064056896
:104400002C600468646804F40064B4F5006F10D193
:104410000468246824F4806405682C6000BF0024CC
:1044200000940468646900940468A469009400BF5F
:10443000B9E000BF00240094046864690094046833
:10444000A469009400BF00BF0468246844F40074A9
:1044500005682C60A7E0A9E0082923D0202921D0F5
:10446000122B01D101291DD104290AD0022908D01B
:10447000102906D00468246824F4806405682C6040
:1044800005E00468246844F4806405682C6000BF7B
:10449000002400940468646900940468A46900948A
:1044A00000BF80E00468246824F4806405682C6000
:1044B00000BF002400940468646900940468A4693F
:1044C000009400BF00BF0468246844F400740568C9
:1044D0002C6068E0FFE7448D022C3BD1042910D00A
:1044E00002290ED010290CD00468246824F48064BA
:1044F00005682C600468246844F4006405682C6036
:1045000005E00468246844F4806405682C6004684D
:10451000646804F40064B4F5006F10D111F5803FB5
:1045200007D0012905D0082903D0102901D020295E
:1045300005D10468646844F4805405686C6000BF69
:10454000002400940468646900940468A4690094D9
:1045500000BF28E00468246844F4806405682C6087
:104560000468646804F40064B4F5006F10D111F5B8
:10457000803F07D0012905D0082903D0102901D098
:10458000202905D10468646844F4805405686C608F
:1045900000BF002400940468646900940468A4695E
:1045A000009400BF00BF002404650AE000BF00249F
:1045B00000940468646900940468A469009400BFCE
:1045C00000BF38BD90F83E1040290ED1016D29B9C9
:1045D000416C01F0FE010268116141E0416CC9B219
:1045E00041F00101026811613AE00169B1F5804FC3
:1045F00020D190F83D10212905D1416C01F0FE0138
:104600000268116105E0416CC9B241F00101026824
:104610001161416B11B1416BC96B21B9816BF9B16A
:10462000816BC96BE1B10168496841F400610268BE
:10463000516015E0016D41B9416C01F44071F02207
:1046400042EAE111026811610AE0016D012907D116
:10465000416C01F44071F12242EAE11102681161FA
:10466000704770B5044694F83D50206D98B9E06CE1
:10467000012807D1A06CC0B221680861206D801CA0
:1046800020654CE0A06CC0F3072021680861206D14
:10469000401C206543E0206D012807D1A06CC0B20A
:1046A00021680861206D401C206538E0206D0228DB
:1046B00035D1222D09D12068006840F4807021682E
:1046C0000860206D401C206529E0608D60B1212DBF
:1046D0000AD1606A007821680861606A401C6062E3
:1046E000608D401E60851AE0608DC0B9212D16D105
:1046F0002068406820F4E060216848602068006815
:1047000040F400702168086000202063202084F8B5
:104710003D00002084F83E002046FDF7D5FD70BD29
:10472000418D49B101680969426A1170416A491CA9
:104730004162418D491E4185704770B5044694F829
:104740003D50608DD8B120680069616A0870606A68
:10475000401C6062608D401E6085608D78B92A2D96
:104760000DD12068406820F48060216848602220D4
:104770002063282084F83D002046FDF7F3FD70BD3E
:10478000418D49B1416A097802681161416A491C49
:104790004162418D491E4185704770B5044694F8C9
:1047A0003D50608DD8B1606A007821680861606A08
:1047B000401C6062608D401E6085608D78B9292D37
:1047C0000DD12068406820F4806021684860212075
:1047D0002063282084F83D002046FDF7C4FD70BD0D
:1047E000F8B504460D46002794F83D0000F0280077
:1047F00028281CD12068406820F480602168486027
:10480000C5F3800000B90127C5F3C01010B9A08915
:1048100086B201E0208B86B200BF002084F83C0005
:1048200000BF324639462046FDF773FB0FE000BF5C
:104830000020009020684069009020688069009006
:1048400000BF00BF00BF002084F83C0000BFF8BDDF
:1048500038B5044694F83D502068406820F4E06084
:104860002168486000BF00200090206840690090E7
:104870002068006840F001002168086000BF00BFA8
:104880002068006820F48060216808602068406823
:1048900000F40060B0F5006F42D1222D01D02A2D26
:1048A0001FD1A06B006840686085608D18B1206CD6
:1048B00040F0040020642068406820F40060216813
:1048C0004860A06BFCF7C1FF012829D04148A16BCB
:1048D0000865A06BFCF7A5FF10B3A06B016D8847BE
:1048E0001EE0606B006840686085608D18B1206CC8
:1048F00040F0040020642068406820F400602168D3
:104900004860606BFCF7A1FF012809D03148616B5A
:104910000865606BFCF785FF10B1606B016D88471F
:10492000608D18B320684069C0F3800048B12068EA
:104930000069616A0870606A401C6062608D401E98
:10494000608520684069C0F3801048B12068006924
:10495000616A0870606A401C6062608D401E6085FC
:10496000608D18B1206C40F004002064206C18B1F8
:104970002046FFF741FA2BE02A2D07D100202063C3
:10498000282084F83D002046FDF7ECFC94F83D001B
:1049900028280DD11048E06200202063202084F8F0
:1049A0003D00002084F83E002046FDF789FC0FE022
:1049B000206B222801D0222D0AD100202063202044
:1049C00084F83D00002084F83E002046FDF7CAFC34
:1049D00038BD0000013D00080000FFFF08B501469A
:1049E00000200090104800681922B0FBF2F04FF44C
:1049F0007A72B0FBF2F000EB8000009000BF0098EC
:104A0000401E0090009828B9086C40F0200008640F
:104A1000012008BD0868006800F40070B0F5007F50
:104A2000EDD00020F5E700005800002004F07CFEE7
:104A300004F0F2FB00240FE004F0AAFE03F00EFFE6
:104A400004F0DEFA114890ED0C0A114880ED000ADE
:104A50000A20FDF7DFF8641CB4F5C87FECDB00BF6B
:104A60000A4890ED0C0A0A48D0ED000A30EE600AC0
:104A7000084880ED000A04F08BFE03F0EFFE04F01E
:104A8000BFFA0A2006F0E2FEEAE70000885500209F
:104A9000DC020020E002002010B50D480D4908603E
:104AA0000920486000210B488160C1604FF400314B
:104AB000016100214161017641768176C1760177FD
:104AC0004177FCF784FC08B1FCF71AF910BD00002F
:104AD000006400404C04002010B50D480D490860EA
:104AE0000920486000210B488160C1604FF400310B
:104AF000016100214161017641768176C1760177BD
:104B00004177FCF764FC08B1FCF7FAF810BD00002F
:104B1000006800407404002008B500BF0020009029
:104B20000E48006840F400100C4908600846006810
:104B300000F40010009000BF00BF002205210C20EF
:104B4000FDF7C6FC0C20FDF7B3FC002205210E206A
:104B5000FDF7BEFC0E20FDF7ABFC08BD303802406F
:104B600010B5074A0021074805F058F906490860C2
:104B7000064A0021064805F051F90649086010BDB3
:104B8000D4D80008AD51000814000020F8D800085F
:104B900019B300081800002000B587B0142102A83E
:104BA000FBF7F3FD00BF002001904D48006840F086
:104BB00040004B4908600846006800F04000019042
:104BC00000BF00BF00BF002001900846006840F011
:104BD000010008600846006800F00100019000BF75
:104BE00000BF00BF002001900846006840F00800A8
:104BF00008600846006800F00800019000BF00BF90
:104C000000BF002001900846006840F004000860E2
:104C10000846006800F00400019000BF00BF00BF1C
:104C2000002001900846006840F020000860084617
:104C3000006800F02000019000BF00BF00BF00200E
:104C400001900846006840F080000860084600684F
:104C500000F08000019000BF00BF00BF0020019065
:104C60000846006840F0100008600846006800F040
:104C70001000019000BF00BF00BF00200190084657
:104C8000006840F0020008600846006800F002007A
:104C9000019000BF00BF002240211248FDF7DEF85E
:104CA00000224FF490411048FDF7D8F840200290C0
:104CB0000120039000200490059002A90948FCF708
:104CC000BDFF4FF490400290012003900490032018
:104CD000059002A90448FCF7B1FF07B000BD000031
:104CE00030380240001402400010024010B5124853
:104CF0001249086012484860002110488160C16074
:104D00004FF480410161002141618161C161016213
:104D1000FDF7EEF908B1FBF7F3FF00210748FDF7B7
:104D2000A9F808B1FBF7ECFF00210448FDF7C8F82B
:104D300008B1FBF7E5FF10BD005800409C040020BF
:104D4000905F010010B50E480E4908604FF4827064
:104D5000486000210B488160C160016141614FF4EE
:104D6000007181613021C161002101624162816273
:104D70000A21C162FDF7F4FF08B1FBF7C1FF10BDC6
:104D800000500140F004002000B587B000200390DF
:104D90000490059006900190029014481449086010
:104DA000542048600021124881603621C1600021F2
:104DB00001618161FEF702FA08B1FBF7A1FF4FF430
:104DC0008050039003A90A48FEF7C2FA08B1FBF726
:104DD00097FF00200190029001A90548FEF794F981
:104DE00008B1FBF78DFF07B000BD000000040040D4
:104DF0004805002000B587B000200390049005907E
:104E00000690019002901448144908602C204860D4
:104E10000021124881600921C16000210161816186
:104E2000FEF7CCF908B1FBF76BFF4FF4805003900D
:104E300003A90A48FEF78CFA08B1FBF761FF0020CE
:104E40000190029001A90548FEF75EF908B1FBF751
:104E500057FF07B000BD000000080040900500208B
:104E600010B50B480B4908604FF4E1304860002151
:104E700008488160C16001610C21416100218161AC
:104E8000C161FEF7A1FD08B1FBF73AFF10BD0000BC
:104E900000480040D805002010B50B480B490860B9
:104EA0004FF4E1304860002108488160C160016131
:104EB0000C21416100218161C161FEF785FD08B1CE
:104EC000FBF71EFF10BD0000001401401C0600206F
:104ED00000BFFEE700BFFEE790ED030A80ED040A85
:104EE00090ED020A80ED030A90ED000AD0ED010A70
:104EF00030EE600A80ED020A90F83C1001292AD1B8
:104F000090ED060AD0ED020A20EE200A80ED080A94
:104F100090ED020AD0ED030A70EE600A90ED080AE7
:104F200090ED051A01EE200AD0ED020A90ED031A69
:104F3000F0EE001A41EEC10A90ED041A70EE810AFB
:104F400090ED071A01EE200AD0ED0A0A30EE200A91
:104F500080ED0A0A3FE090F83C10E1BB90ED080AB2
:104F6000D0ED060A90ED021A00EE810A80ED080AE3
:104F700090ED080AD0ED090AB4EEE00AF1EE10FA5D
:104F800004DD90ED090A80ED080A10E090ED080AB2
:104F9000D0ED090AF1EE600AB4EEE00AF1EE10FA83
:104FA00005D290ED090AB1EE400A80ED080A90EDB5
:104FB000080AD0ED050A90ED021A00EE810AD0ED44
:104FC000020A90ED031A70EEC10A90ED071A01EE85
:104FD000200A80ED0A0A90ED0A0AD0ED0B0AB4EE21
:104FE000E00AF1EE10FA04DD90ED0B0A80ED0A0AFA
:104FF00010E090ED0A0AD0ED0B0AF1EE600AB4EE73
:10500000E00AF1EE10FA05D290ED0B0AB1EE400A7B
:1050100080ED0A0A704700009FED0E0A80ED000A3D
:105020009FED0C0A80ED010A9FED0A0A80ED020A4D
:105030009FED080A80ED030A9FED060A80ED040A41
:105040009FED040A80ED080A9FED020A80ED0A0A2E
:1050500070470000000000000146002901DD0846FD
:105060007047484200B2FBE77CB504460D46164641
:10507000164800681821B0FBF1F01549B0FBF1F0BB
:105080004FF47A71484301906068B0F5827F0DD18A
:105090002B46002280212046009600F01BF898B194
:1050A000606D40F02000606503207CBD00BF01986A
:1050B00000B908E00198401E019020688068C0F3A4
:1050C000C0100028F3D100BF0020EEE758000020F8
:1050D00040420F002DE9F84F04460D4690461E460B
:1050E000DDF82890FCF7C0FEA0EB0900371AFCF7AA
:1050F000BBFE82462C480068C0F3CB30784300905A
:1051000045E0701C002842D0FCF7AEFEA0EB0A0080
:10511000B84200D2A7BB2068406820F0E0002168B8
:1051200048606068B0F5827F0DD1A068B0F5004F8F
:1051300003D0A068B0F5806F05D12068006820F02A
:10514000400021680860A06AB0F5005F0DD100BF83
:105150002068006820F4005021680860206800681A
:1051600040F400502168086000BF012084F851001D
:1051700000BF002084F8500000BF0320BDE8F88F76
:10518000FFE7009800B900270098401E00902068B3
:1051900080682840A84201D1012000E0002040455D
:1051A000AFD10020EAE700005800002000BF012036
:1051B00004F09AFDFBE710B54FF0E020006907F01E
:1051C000D5F9012801D006F00BFE10BD00B593B053
:1051D000302107A8FBF7D9FA142102A8FBF7D5FA6A
:1051E00000BF002001902648006840F0805024490C
:1051F00008600846006800F08050019000BF00BFC2
:1052000000BF002001901F48006840F440401D4945
:1052100008600846006800F44040019000BF00BFED
:10522000012007900004089002200D9041050E9186
:1052300006210F91B42110910221119108211291A0
:1052400007A8FDF73FFB08B1FBF75AFDFDF792F900
:1052500008B1FBF755FD0F200290022003900020BB
:1052600004904FF4A05005904FF480500690052113
:1052700002A8FDF7C5F908B1FBF742FD13B000BD68
:1052800040380240007000400348006840F470005D
:10529000014908607047000088ED00E010B5024841
:1052A000FEF7DDF810BD00002007002010B5024811
:1052B000FEF7D5F810BD00004805002010B50248E3
:1052C000FEF7CDF810BD00009005002010B5026873
:1052D000294B98420ED0B0F1804F0BD0274B98420B
:1052E00008D0274B984205D0264B984202D0264B37
:1052F000984203D122F070024B681A431E4B984229
:1053000020D0B0F1804F1DD01C4B98421AD01C4BBE
:10531000984217D01B4B984214D01B4B984211D087
:105320001A4B98420ED01A4B98420BD0194B984208
:1053300008D0194B984205D0184B984202D0184B10
:10534000984203D122F44072CB681A4322F08003C2
:105350004C6943EA040202608B68C3620B68836293
:10536000054B984202D0084B984201D10B69036368
:105370000123436110BD0000000001400004004013
:1053800000080040000C00400004014000400140C3
:10539000004401400048014000180040001C00404B
:1053A0000020004030B50C46816821F47F4142EA7C
:1053B000032525432943816030BD0A46816821F0D9
:1053C000700142F0070319438160704730B50B4606
:1053D0001446026A056A25F001050562816921F01B
:1053E000F00141EA041122F00A021A4381610262CB
:1053F00030BD30B50B461446056A25F01005056230
:105400008169026A21F4704141EA043122F0A0026C
:1054100042EA03128161026230BD70B50546AC6B91
:105420000020E085E0842046FEF75DF970BD70B590
:1054300006460025B46B20684069C0F3C01594F897
:105440003D00212805D125B10020E084204600F050
:10545000C4F820684069C0F3801594F83E00222803
:1054600005D125B10020E085204600F070F8206CC1
:1054700040F0100020642046FEF735F970BD70B58D
:105480000546AC6B2868006800F48070002842D1A3
:10549000E08500BF00BF21680C3151E8001F21F4F6
:1054A000807021680C3141E80002002AF3D100BF6E
:1054B00000BF00BF2168143151E8001F21F0010036
:1054C0002168143141E80002002AF3D100BF00BF77
:1054D00000BF2168143151E8001F21F0400021680D
:1054E000143141E80002002AF3D100BF202084F8E3
:1054F0003E00206B01280ED100BF00BF21680C3197
:1055000051E8001F21F0100021680C3141E8000231
:10551000002AF3D100BF206B012804D1A18D2046C1
:10552000FEF79BF802E02046FEF7A4FB70BD70B5C5
:105530000546AC6B206B012805D1A08D41082046A3
:10554000FEF78BF802E02046FEF7C0FB70BD00BFFF
:1055500000BF02680C3252E8002F22F490710268FA
:105560000C3242E80013002BF3D100BF00BF00BF94
:105570000268143252E8002F22F00101026814324E
:1055800042E80013002BF3D100BF016B01290ED1BB
:1055900000BF00BF02680C3252E8002F22F0100159
:1055A00002680C3242E80013002BF3D100BF202127
:1055B00080F83E1000210163704710B50446206852
:1055C000C06820F040002168C860202084F83D00B9
:1055D0002046FEF77CFB002010BD00BF00BF026824
:1055E0000C3252E8002F22F0C00102680C3242E86F
:1055F0000013002BF3D100BF202180F83D1070472D
:10560000F8B5044694F83E00222873D1A068B0F59E
:10561000805F0CD1206950B90025A66A20684068D7
:10562000C0F308003080A06A801CA06215E0A56A63
:105630000026A068B0F5805F03D0A06828B9206973
:1056400018B920684068287004E02068406800F0BD
:105650007F002870A06A401CA062E08D401E80B2CE
:10566000E085002844D12068C06820F0200021682F
:10567000C8602068C06820F480702168C860206815
:10568000406920F0010021684861202084F83E0034
:10569000206B012826D10020206300BF00BF2168B5
:1056A0000C3151E8001F21F0100021680C3141E855
:1056B0000002002AF3D100BF2068006800F010004B
:1056C00010280AD100BF00200090206800680090D8
:1056D00020684068009000BF00BFA18D2046FDF704
:1056E000BCFF02E02046FEF7C5FA0020F8BD01E04D
:1056F0000020FBE70220F9E72DE9F84F0446206877
:10570000006920F44050E16808432168086121697C
:10571000A068084361690843E16908430090206874
:10572000C06849F20C618843009908432168C86049
:105730002068406920F44070A169084321684861ED
:1057400076492068884203D075492068884203D191
:10575000FDF750F8814602E0FDF73CF88146E0692C
:10576000B0F5004F6CD102206168A0FB01500346E8
:105770001920A9FB007001462A463846FAF731FE87
:105780006421B0FBF1F04FEA001A02206168A0FB2F
:1057900001510B461920A9FB00712A463846FAF739
:1057A00020FE834602206168A0FB015003461920B9
:1057B000A9FB00712A463846FAF713FE6421B0FBB4
:1057C000F1F000EBC00101EB0010ABEB80003221E7
:1057D00001EBC0006421B0FBF1F000F0F8000AEB2F
:1057E000400A02206168A0FB015003461920A9FB72
:1057F000007001462A463846FAF7F3FD8346022038
:105800006168A0FB015003461920A9FB00712A46DC
:105810003846FAF7E6FD6421B0FBF1F000EBC00179
:1058200001EB0010ABEB8000322101EBC0006421E2
:10583000B0FBF1F000F007005044216888606AE096
:1058400004206168A0FB015003461920A9FB0070E9
:1058500001462A463846FAF7C4FD824604206168AC
:10586000A0FB015003461920A9FB007001462A46FF
:105870003846FAF7B6FD6421B0FBF1F000EBC00149
:1058800001EB0010AAEB8000322101EB0010642133
:10589000B0FBF1F000F0F00A04206168A0FB017099
:1058A00003461920A9FB00513A462846FAF799FD0C
:1058B0006421B0FBF1F00AEB001A04206168A0FB40
:1058C00001510B461920A9FB00712A463846FAF708
:1058D00088FD834604206168A0FB0150034619201F
:1058E000A9FB007001462A463846FAF77AFD642182
:1058F000B0FBF1F000EBC00101EB0010ABEB80005E
:10590000322101EB00106421B0FBF1F000F00F0038
:10591000504421688860BDE8F88F00000010014005
:105920000014014077B581B0044615460298A06284
:10593000A58500202064222084F83E002A48A16B1F
:10594000C8632A48A16B08642948A16BC864002079
:10595000A16B086502AE32682368191D2B46A06B47
:10596000FCF70EF900BF002000902068006800904E
:1059700020684068009000BF00BF00BF002084F88E
:105980003C0000BF206970B100BF00BF21680C312E
:1059900051E8001F41F4807021680C3141E8000299
:1059A000002AF3D100BF00BF00BF2168143151E8C5
:1059B000001F41F001002168143141E80002002A73
:1059C000F3D100BF00BF00BF2168143151E8001FB0
:1059D00041F040002168143141E80002002AF3D16F
:1059E00000BF002004B070BD7F5400082F55000890
:1059F0002F54000810B5034699629A85DA85002075
:105A00001864222083F83E0000BF002083F83C0089
:105A100000BF186928B11868C06840F480701C681D
:105A2000E0601868406940F001001C686061186817
:105A3000C06840F020001C68E060002010BD0146F6
:105A400091F83D00212828D18868B0F5805F0BD1FE
:105A5000086948B90A6A1088C0F308000B685860E2
:105A6000086A801C086205E00B6A581C08621878F6
:105A70000B685860C88C401E80B2C88458B908684A
:105A8000C06820F080000B68D8600868C06840F0EB
:105A900040000B68D860002070470220FCE700003F
:105AA0002DED108B00BF0A2005F0D0FEA7E1D448F1
:105AB00000780028FAD00020D14908709FEDD10B62
:105AC00000F07EFEB0EE40BAF0EE60BA9FEDCD0B76
:105AD00000F076FEB0EE40DAF0EE60DACB49896C89
